:020000040000FA
:100000000A128A11EA2F00308A000408840A820743
:1000100000346F3470346534723461346E34643457
:100020006F342E342E342E342034203420342034B7
:100030002034203420340034543445345234543481
:100040004F3453342034543445344B34203420342A
:100050002034203420342034203400344F345034C1
:10006000453452344134433441344F3420344334E2
:100070003A34203443344634473420342034003476
:10008000423445344D342034563449344E344434AB
:100090004F34203420342034203420342034203491
:1000A000003443344F344E344634493447345534A5
:1000B00052344134433441344F34203420342034DA
:0400C00020340034B4
:10095200831603178901F03083160313860083126E
:10096200031386010800F5007508F4000630031031
:10097200F40DFF3E031DB82C730874077F39803EC7
:100982000A128A118B250A128A1108007E088A002F
:100992007F0882000A128A11C7240A128A11800073
:1009A200840A04087D0603190034FF0A0319FE0AAB
:1009B200CB2C31343234333441343434353436345C
:1009C200423437343834393443342A3430342334DB
:1009D20044343234313431343834FD2C0130F002B5
:1009E2000030031CF103F102C730F200F82CF20BC5
:1009F200F72CFB2CFC2CFD2C70087104031D022D1E
:100A0200032DEF2C042D08008316031308118811FF
:100A120008128812081388138312031388152830CA
:100A22000A128A118B250A128A110C300A128A11B3
:100A32008B250A128A1101300A128A118B250A1299
:100A42008A1102300A128A118B250A128A110800B1
:100A5200F2008312031308157208F0000430031029
:100A6200F00CFF3E031D302D7008F100F10E080856
:100A720071060F397106880088110D30F000F00BF5
:100A8200402D831203138815081572080F39F000E0
:100A9200F00E080870060F397006880088110D30B4
:100AA200F000F00B522D8312031388150800FA0090
:100AB2007608F8007808F9007608F8007808F3005C
:100AC2007A080A128A11B4240A128A117D2D770833
:100AD20084000A128A1103200A128A110A128A1148
:100AE20029250A128A110130F8007808F707013027
:100AF200F8007808F9077D2D770884000A128A1118
:100B020003200A128A11003A031D882D892D682DAF
:100B12008A2D0800F2008312031308117208F000F4
:100B220004300310F00CFF3E031D922D7008F100FB
:100B3200F10E080871060F397106880088117203D8
:100B42000319A42DA52DAC2D02307206031DAA2D6A
:100B5200AB2DB62DAC2D0330F1009730F000F00B29
:100B6200B02DF10BB02DB52DBB2D0D30F000F00BDB
:100B7200B82DBB2D831203138815F0307205F000D7
:100B820020307006031DC62DC72DE12D08117208F5
:100B9200F00004300310F00CFF3E031DCB2D700853
:100BA200F100F10E080871060F39710688008811EC
:100BB2000D30F000F00BDB2D831203138815E12DAD
:100BC200081172080F39F000F00E080870060F398C
:100BD20070068800881172030319F02DF12DF82D8B
:100BE20002307206031DF62DF72D022EF82D03306A
:100BF200F1009730F000F00BFC2DF10BFC2D012ED3
:100C0200072E0D30F000F00B042E072E8312031373
:100C120088150800F1010130831203138600F201E6
:100C220004307202031C162E172E192E3C2E3C2E57
:100C32001030F000720A1F2E0310F00DFF3E031D4C
:100C42001D2E700806050319272E282E312E720834
:100C5200203E840083130008F0007008F100312E5A
:100C62000130F0007008F20704307202031C3A2EC1
:100C72003B2E192E3C2E02308600F2010430720205
:100C8200031C442E452E472E6A2E6A2E1030F00089
:100C9200720A4D2E0310F00DFF3E031D4B2E7008FD
:100CA20006050319552E562E5F2E7208243E840027
:100CB20083130008F0007008F1005F2E0130F0008D
:100CC2007008F20704307202031C682E692E472E48
:100CD2006A2E04308600F20104307202031C722E66
:100CE200732E752E982E982E1030F000720A7B2EDD
:100CF2000310F00DFF3E031D792E7008060503193F
:100D0200832E842E8D2E7208283E840083130008C1
:100D1200F0007008F1008D2E0130F0007008F2072B
:100D220004307202031C962E972E752E982E0830D0
:100D32008600F20104307202031CA02EA12EA32E03
:100D4200C62EC62E1030F000720AA92E0310F00D26
:100D5200FF3E031DA72E700806050319B12EB22E01
:100D6200BB2E72082C3E840083130008F00070082A
:100D7200F100BB2E0130F0007008F207043072025D
:100D8200031CC42EC52EA32EC62E7108C82E080021
:100D920083120313BE01B801BD014408BC0043081D
:100DA200BB004208BA004108B9003308B700320854
:100DB200B6003108B5003008B400BF01C0010A1204
:100DC2008A1105250A128A110A128A11A9240A1205
:100DD2008A11EB2E0A128A110B260A128A11FB00C3
:100DE2007B0883120313C000762FBF01BF0AEB2ECC
:100DF200F6013830FB007B08F70000300A128A1136
:100E020058250A128A11B830F0000B30F1000A128C
:100E12008A11EE240A128A110A30FB007B0883121F
:100E22000313BF00EB2EF6011430FB007B08F70022
:100E320000300A128A1158250A128A11F601263048
:100E4200FB007B08F70001300A128A1158250A12AA
:100E52008A113130831203134006031D312F322FC2
:100E6200372F1430FB007B08BF00372F303040068D
:100E7200031D3C2F3D2FEB2E6430FB007B08BF008F
:100E8200EB2EEB2EF6010130FB007B08F700003061
:100E92000A128A1158250A128A112A308312031360
:100EA2004006031D552F562FEB2E0A30FB007B0800
:100EB200BF00EB2EEB2EF6014930FB007B08F7005A
:100EC20000300A128A1158250A128A11233083121D
:100ED20003134006031D6E2F6F2FEB2E0A30FB000B
:100EE2007B08BF00EB2EEB2EEB2E3F08FB00FC0134
:100EF2007C08003A03197E2FEB2E7B08003A031977
:100F0200F62E013A0319F92E0B3A0319142F1E3A41
:100F12000319432F0A3A03195C2FEB2EEB2EEB2E0B
:100F2200CE2FE72FBE01B901BA01BB01BC01E72FE9
:100F320030304002031C9E2F9F2FE72F3A30400291
:100F42000318A42FA52FE72F0E30FB007B08BD004E
:100F5200E72FE72F4008FB003E08393E84007B085C
:100F6200831380001030FB007B08BD00E72F0130A7
:100F7200FB007B08BE0704303E020318C12FC22FBC
:100F8200C72F0C30FB007B08BD00E72F1430FB009D
:100F92007B08BD00E72FE72FE72F3D08FB00FC0190
:100FA2007C08003A0319D62FE72F7B08003A031971
:100FB200E72F0A3A0319932F063A0319992F023A97
:100FC2000319AB2F1E3A0319B82FE72F0A128A1101
:100FD200002883133430FD000430FE00DA30FF00B5
:100FE200203084000A128A11CB240A128A11C1010C
:0E0FF200C201C301C40183010A128A11C92E73
:04400E00D4E0FFFFFC
:00000001FF
